{
  "_format": "hh-sol-artifact-1",
  "contractName": "Insta",
  "sourceName": "contracts/Insta.sol",
  "abi": [
    {
      "inputs": [
        {
          "internalType": "address",
          "name": "",
          "type": "address"
        }
      ],
      "name": "ALLPost",
      "outputs": [
        {
          "internalType": "string",
          "name": "text",
          "type": "string"
        },
        {
          "internalType": "string",
          "name": "imageUrl",
          "type": "string"
        },
        {
          "internalType": "address",
          "name": "WhoCreatedPost",
          "type": "address"
        },
        {
          "internalType": "uint256",
          "name": "postAccount",
          "type": "uint256"
        }
      ],
      "stateMutability": "view",
      "type": "function"
    },
    {
      "inputs": [
        {
          "internalType": "address",
          "name": "",
          "type": "address"
        }
      ],
      "name": "ALLUser",
      "outputs": [
        {
          "internalType": "string",
          "name": "name",
          "type": "string"
        },
        {
          "internalType": "bool",
          "name": "liked",
          "type": "bool"
        },
        {
          "internalType": "bool",
          "name": "postCreated",
          "type": "bool"
        }
      ],
      "stateMutability": "view",
      "type": "function"
    },
    {
      "inputs": [
        {
          "internalType": "address",
          "name": "",
          "type": "address"
        }
      ],
      "name": "AllFriend",
      "outputs": [
        {
          "internalType": "string",
          "name": "name",
          "type": "string"
        },
        {
          "internalType": "address",
          "name": "pubkey",
          "type": "address"
        }
      ],
      "stateMutability": "view",
      "type": "function"
    },
    {
      "inputs": [
        {
          "internalType": "address",
          "name": "",
          "type": "address"
        }
      ],
      "name": "AllMessage",
      "outputs": [
        {
          "internalType": "address",
          "name": "pubkey",
          "type": "address"
        },
        {
          "internalType": "string",
          "name": "message",
          "type": "string"
        }
      ],
      "stateMutability": "view",
      "type": "function"
    },
    {
      "inputs": [],
      "name": "AllPostByEveryone",
      "outputs": [
        {
          "components": [
            {
              "internalType": "string",
              "name": "text",
              "type": "string"
            },
            {
              "internalType": "string",
              "name": "imageUrl",
              "type": "string"
            },
            {
              "internalType": "address",
              "name": "WhoCreatedPost",
              "type": "address"
            },
            {
              "internalType": "uint256",
              "name": "postAccount",
              "type": "uint256"
            }
          ],
          "internalType": "struct Insta.post[]",
          "name": "",
          "type": "tuple[]"
        }
      ],
      "stateMutability": "view",
      "type": "function"
    },
    {
      "inputs": [
        {
          "internalType": "address",
          "name": "me",
          "type": "address"
        },
        {
          "internalType": "address",
          "name": "_pubkey",
          "type": "address"
        },
        {
          "internalType": "string",
          "name": "_name",
          "type": "string"
        }
      ],
      "name": "CreateFriend",
      "outputs": [],
      "stateMutability": "nonpayable",
      "type": "function"
    },
    {
      "inputs": [
        {
          "internalType": "string",
          "name": "_name",
          "type": "string"
        }
      ],
      "name": "CreateUser",
      "outputs": [],
      "stateMutability": "nonpayable",
      "type": "function"
    },
    {
      "inputs": [],
      "name": "allUser",
      "outputs": [
        {
          "components": [
            {
              "internalType": "string",
              "name": "name",
              "type": "string"
            },
            {
              "components": [
                {
                  "internalType": "string",
                  "name": "name",
                  "type": "string"
                },
                {
                  "internalType": "address",
                  "name": "pubkey",
                  "type": "address"
                }
              ],
              "internalType": "struct Insta.friend[]",
              "name": "friendList",
              "type": "tuple[]"
            },
            {
              "components": [
                {
                  "internalType": "string",
                  "name": "text",
                  "type": "string"
                },
                {
                  "internalType": "string",
                  "name": "imageUrl",
                  "type": "string"
                },
                {
                  "internalType": "address",
                  "name": "WhoCreatedPost",
                  "type": "address"
                },
                {
                  "internalType": "uint256",
                  "name": "postAccount",
                  "type": "uint256"
                }
              ],
              "internalType": "struct Insta.post[]",
              "name": "SpeceficArray",
              "type": "tuple[]"
            },
            {
              "components": [
                {
                  "internalType": "address",
                  "name": "pubkey",
                  "type": "address"
                },
                {
                  "internalType": "string",
                  "name": "message",
                  "type": "string"
                }
              ],
              "internalType": "struct Insta.message[]",
              "name": "ArrayMessage",
              "type": "tuple[]"
            },
            {
              "internalType": "bool",
              "name": "liked",
              "type": "bool"
            },
            {
              "internalType": "bool",
              "name": "postCreated",
              "type": "bool"
            }
          ],
          "internalType": "struct Insta.user[]",
          "name": "",
          "type": "tuple[]"
        }
      ],
      "stateMutability": "view",
      "type": "function"
    },
    {
      "inputs": [
        {
          "internalType": "address",
          "name": "me",
          "type": "address"
        },
        {
          "internalType": "address",
          "name": "_pubkey",
          "type": "address"
        },
        {
          "internalType": "string",
          "name": "_message",
          "type": "string"
        }
      ],
      "name": "createChat",
      "outputs": [],
      "stateMutability": "nonpayable",
      "type": "function"
    },
    {
      "inputs": [
        {
          "internalType": "address",
          "name": "me",
          "type": "address"
        },
        {
          "internalType": "string",
          "name": "_text",
          "type": "string"
        },
        {
          "internalType": "string",
          "name": "_imageUrl",
          "type": "string"
        }
      ],
      "name": "createPost",
      "outputs": [],
      "stateMutability": "nonpayable",
      "type": "function"
    },
    {
      "inputs": [],
      "name": "getMyFriendList",
      "outputs": [
        {
          "components": [
            {
              "internalType": "string",
              "name": "name",
              "type": "string"
            },
            {
              "internalType": "address",
              "name": "pubkey",
              "type": "address"
            }
          ],
          "internalType": "struct Insta.friend[]",
          "name": "",
          "type": "tuple[]"
        }
      ],
      "stateMutability": "view",
      "type": "function"
    },
    {
      "inputs": [],
      "name": "like",
      "outputs": [],
      "stateMutability": "nonpayable",
      "type": "function"
    },
    {
      "inputs": [],
      "name": "sepecificLike",
      "outputs": [
        {
          "internalType": "uint256",
          "name": "",
          "type": "uint256"
        }
      ],
      "stateMutability": "view",
      "type": "function"
    },
    {
      "inputs": [],
      "name": "speceficMessage",
      "outputs": [
        {
          "components": [
            {
              "internalType": "address",
              "name": "pubkey",
              "type": "address"
            },
            {
              "internalType": "string",
              "name": "message",
              "type": "string"
            }
          ],
          "internalType": "struct Insta.message[]",
          "name": "",
          "type": "tuple[]"
        }
      ],
      "stateMutability": "view",
      "type": "function"
    },
    {
      "inputs": [],
      "name": "specificPost",
      "outputs": [
        {
          "components": [
            {
              "internalType": "string",
              "name": "text",
              "type": "string"
            },
            {
              "internalType": "string",
              "name": "imageUrl",
              "type": "string"
            },
            {
              "internalType": "address",
              "name": "WhoCreatedPost",
              "type": "address"
            },
            {
              "internalType": "uint256",
              "name": "postAccount",
              "type": "uint256"
            }
          ],
          "internalType": "struct Insta.post[]",
          "name": "",
          "type": "tuple[]"
        }
      ],
      "stateMutability": "view",
      "type": "function"
    }
  ],
  "bytecode": "0x6080604052600060065534801561001557600080fd5b50611b18806100256000396000f3fe608060405234801561001057600080fd5b50600436106100f55760003560e01c8063a0503ae511610097578063c18b8a5c11610066578063c18b8a5c146101e6578063c757b35d146101f9578063c9b921201461021a578063e60e2ea41461023c57600080fd5b8063a0503ae514610195578063a523b88a146101b6578063bd0f4d0d146101be578063c096cdd5146101d357600080fd5b806363bcd7b2116100d357806363bcd7b2146101355780636b76bd941461014a578063866612621461015d5780639bad2af01461017257600080fd5b806321d0cd31146100fa578063327d25a71461010f57806362e79d841461012d575b600080fd5b61010d6101083660046114de565b61025d565b005b6101176102db565b6040516101249190611589565b60405180910390f35b610117610481565b61013d61062a565b604051610124919061162d565b61010d61015836600461169c565b610733565b61016561075e565b60405161012491906117b2565b610185610180366004611925565b610c1f565b6040516101249493929190611947565b6101a86101a3366004611925565b610d61565b604051610124929190611989565b61010d610e0e565b6101c6610e44565b60405161012491906119b3565b61010d6101e13660046119c6565b610f4b565b61010d6101f43660046114de565b61113e565b33600090815260016020526040902060030154604051908152602001610124565b61022d610228366004611925565b611227565b60405161012493929190611a30565b61024f61024a366004611925565b6112d7565b604051610124929190611a5a565b6040805180820182526001600160a01b0384811682526020808301858152878316600090815280835294852060030180546001808201835591875295839020855160029097020180546001600160a01b03191696909416959095178355518051939485946102d2939185019290910190611386565b50505050505050565b60606004805480602002602001604051908101604052809291908181526020016000905b82821015610478578382906000526020600020906004020160405180608001604052908160008201805461033290611a7e565b80601f016020809104026020016040519081016040528092919081815260200182805461035e90611a7e565b80156103ab5780601f10610380576101008083540402835291602001916103ab565b820191906000526020600020905b81548152906001019060200180831161038e57829003601f168201915b505050505081526020016001820180546103c490611a7e565b80601f01602080910402602001604051908101604052809291908181526020018280546103f090611a7e565b801561043d5780601f106104125761010080835404028352916020019161043d565b820191906000526020600020905b81548152906001019060200180831161042057829003601f168201915b505050918352505060028201546001600160a01b031660208083019190915260039092015460409091015290825260019290920191016102ff565b50505050905090565b33600090815260208181526040808320600201805482518185028101850190935280835260609492939192909184015b8282101561047857838290600052602060002090600402016040518060800160405290816000820180546104e490611a7e565b80601f016020809104026020016040519081016040528092919081815260200182805461051090611a7e565b801561055d5780601f106105325761010080835404028352916020019161055d565b820191906000526020600020905b81548152906001019060200180831161054057829003601f168201915b5050505050815260200160018201805461057690611a7e565b80601f01602080910402602001604051908101604052809291908181526020018280546105a290611a7e565b80156105ef5780601f106105c4576101008083540402835291602001916105ef565b820191906000526020600020905b8154815290600101906020018083116105d257829003601f168201915b505050918352505060028201546001600160a01b031660208083019190915260039092015460409091015290825260019290920191016104b1565b33600090815260208181526040808320600301805482518185028101850190935280835260609492939192909184015b82821015610478576000848152602090819020604080518082019091526002850290910180546001600160a01b0316825260018101805492939192918401916106a290611a7e565b80601f01602080910402602001604051908101604052809291908181526020018280546106ce90611a7e565b801561071b5780601f106106f05761010080835404028352916020019161071b565b820191906000526020600020905b8154815290600101906020018083116106fe57829003601f168201915b5050505050815250508152602001906001019061065a565b33600090815260208181526040909120825161075192840190611386565b5050336000908152602052565b60606005805480602002602001604051908101604052809291908181526020016000905b8282101561047857838290600052602060002090600502016040518060c00160405290816000820180546107b590611a7e565b80601f01602080910402602001604051908101604052809291908181526020018280546107e190611a7e565b801561082e5780601f106108035761010080835404028352916020019161082e565b820191906000526020600020905b81548152906001019060200180831161081157829003601f168201915b5050505050815260200160018201805480602002602001604051908101604052809291908181526020016000905b82821015610933578382906000526020600020906002020160405180604001604052908160008201805461088f90611a7e565b80601f01602080910402602001604051908101604052809291908181526020018280546108bb90611a7e565b80156109085780601f106108dd57610100808354040283529160200191610908565b820191906000526020600020905b8154815290600101906020018083116108eb57829003601f168201915b50505091835250506001918201546001600160a01b031660209182015291835292909201910161085c565b50505050815260200160028201805480602002602001604051908101604052809291908181526020016000905b82821015610ad9578382906000526020600020906004020160405180608001604052908160008201805461099390611a7e565b80601f01602080910402602001604051908101604052809291908181526020018280546109bf90611a7e565b8015610a0c5780601f106109e157610100808354040283529160200191610a0c565b820191906000526020600020905b8154815290600101906020018083116109ef57829003601f168201915b50505050508152602001600182018054610a2590611a7e565b80601f0160208091040260200160405190810160405280929190818152602001828054610a5190611a7e565b8015610a9e5780601f10610a7357610100808354040283529160200191610a9e565b820191906000526020600020905b815481529060010190602001808311610a8157829003601f168201915b505050918352505060028201546001600160a01b03166020808301919091526003909201546040909101529082526001929092019101610960565b50505050815260200160038201805480602002602001604051908101604052809291908181526020016000905b82821015610bdf576000848152602090819020604080518082019091526002850290910180546001600160a01b031682526001810180549293919291840191610b4e90611a7e565b80601f0160208091040260200160405190810160405280929190818152602001828054610b7a90611a7e565b8015610bc75780601f10610b9c57610100808354040283529160200191610bc7565b820191906000526020600020905b815481529060010190602001808311610baa57829003601f168201915b50505050508152505081526020019060010190610b06565b505050908252506004919091015460ff80821615156020808501919091526101009092041615156040909201919091529082526001929092019101610782565b600160205260009081526040902080548190610c3a90611a7e565b80601f0160208091040260200160405190810160405280929190818152602001828054610c6690611a7e565b8015610cb35780601f10610c8857610100808354040283529160200191610cb3565b820191906000526020600020905b815481529060010190602001808311610c9657829003601f168201915b505050505090806001018054610cc890611a7e565b80601f0160208091040260200160405190810160405280929190818152602001828054610cf490611a7e565b8015610d415780601f10610d1657610100808354040283529160200191610d41565b820191906000526020600020905b815481529060010190602001808311610d2457829003601f168201915b50505050600283015460039093015491926001600160a01b031691905084565b600260205260009081526040902080548190610d7c90611a7e565b80601f0160208091040260200160405190810160405280929190818152602001828054610da890611a7e565b8015610df55780601f10610dca57610100808354040283529160200191610df5565b820191906000526020600020905b815481529060010190602001808311610dd857829003601f168201915b505050600190930154919250506001600160a01b031682565b336000908152602081905260409020600401805461ff00191661010017905560068054906000610e3d83611ab9565b9190505550565b33600090815260208181526040808320600101805482518185028101850190935280835260609492939192909184015b828210156104785783829060005260206000209060020201604051806040016040529081600082018054610ea790611a7e565b80601f0160208091040260200160405190810160405280929190818152602001828054610ed390611a7e565b8015610f205780601f10610ef557610100808354040283529160200191610f20565b820191906000526020600020905b815481529060010190602001808311610f0357829003601f168201915b50505091835250506001918201546001600160a01b0316602091820152918352929092019101610e74565b33600090815260208181526040808320600401805461ff001916610100179055600182529091208351610f8092850190611386565b503360009081526001602081815260409092208351610fa793919092019190840190611386565b5033600081815260016020818152604080842060020180546001600160a01b0319168617905580516080810182528781528083018790529081019490945260065460608501526004805492830181559283905283518051929093027f8a35acfbc15ff81a39ae7d344fd709f28e8600b4aa8c65c6b64bfe7fe36bd19b01926110359284929190910190611386565b50602082810151805161104e9260018501920190611386565b50604082810151600283810180546001600160a01b0319166001600160a01b0393841617905560609485015160039094019390935581516080810183528681526020808201879052338285015260065495820195909552908716600090815280855291822090920180546001810182559082529083902082518051939485946004909402909201926110e39284920190611386565b5060208281015180516110fc9260018501920190611386565b5060408201516002820180546001600160a01b0319166001600160a01b0390921691909117905560609091015160039091015550503360009081526020525050565b33600090815260208181526040808320600401805461ff0019166101001790556001600160a01b0385168084526002835292206001810180546001600160a01b03191690931790925582516111969291840190611386565b506040805180820182528281526001600160a01b03808516602080840191909152908616600090815280825292832060019081018054918201815584529281902082518051939485946002909102909201926111f792849290910190611386565b5060209190910151600190910180546001600160a01b0319166001600160a01b0390921691909117905550505050565b60006020819052908152604090208054819061124290611a7e565b80601f016020809104026020016040519081016040528092919081815260200182805461126e90611a7e565b80156112bb5780601f10611290576101008083540402835291602001916112bb565b820191906000526020600020905b81548152906001019060200180831161129e57829003601f168201915b5050506004909301549192505060ff8082169161010090041683565b600360205260009081526040902080546001820180546001600160a01b03909216929161130390611a7e565b80601f016020809104026020016040519081016040528092919081815260200182805461132f90611a7e565b801561137c5780601f106113515761010080835404028352916020019161137c565b820191906000526020600020905b81548152906001019060200180831161135f57829003601f168201915b5050505050905082565b82805461139290611a7e565b90600052602060002090601f0160209004810192826113b457600085556113fa565b82601f106113cd57805160ff19168380011785556113fa565b828001600101855582156113fa579182015b828111156113fa5782518255916020019190600101906113df565b5061140692915061140a565b5090565b5b80821115611406576000815560010161140b565b80356001600160a01b038116811461143657600080fd5b919050565b634e487b7160e01b600052604160045260246000fd5b600082601f83011261146257600080fd5b813567ffffffffffffffff8082111561147d5761147d61143b565b604051601f8301601f19908116603f011681019082821181831017156114a5576114a561143b565b816040528381528660208588010111156114be57600080fd5b836020870160208301376000602085830101528094505050505092915050565b6000806000606084860312156114f357600080fd5b6114fc8461141f565b925061150a6020850161141f565b9150604084013567ffffffffffffffff81111561152657600080fd5b61153286828701611451565b9150509250925092565b6000815180845260005b8181101561156257602081850181015186830182015201611546565b81811115611574576000602083870101525b50601f01601f19169290920160200192915050565b60006020808301818452808551808352604092508286019150828160051b87010184880160005b8381101561161f57603f198984030185528151608081518186526115d68287018261153c565b915050888201518582038a8701526115ee828261153c565b838a01516001600160a01b0316878b01526060938401519390960192909252505093860193908601906001016115b0565b509098975050505050505050565b60006020808301818452808551808352604092508286019150828160051b87010184880160005b8381101561161f57888303603f19018552815180516001600160a01b031684528701518784018790526116898785018261153c565b9588019593505090860190600101611654565b6000602082840312156116ae57600080fd5b813567ffffffffffffffff8111156116c557600080fd5b6116d184828501611451565b949350505050565b600081518084526020808501808196508360051b8101915082860160005b858110156117405782840389528151604081518187526117198288018261153c565b928801516001600160a01b03169688019690965250988501989350908401906001016116f7565b5091979650505050505050565b600081518084526020808501808196508360051b8101915082860160005b85811015611740578284038952815180516001600160a01b03168552850151604086860181905261179e8187018361153c565b9a87019a955050509084019060010161176b565b60208152600060208201835180825260408401915060408160051b8501016020860160005b8381101561191957603f198784030185528151805160c085526117fd60c086018261153c565b90506020820151858203602087015261181682826116d9565b9150506040820151858203604087015281815180845260208401915060208160051b85010160208401935060005b828110156118b957601f19868303018452845180516080845261186a608085018261153c565b905060208201518482036020860152611883828261153c565b6040848101516001600160a01b031690870152606093840151939095019290925250506020948501949390930192600101611844565b506060860151945088810360608a01526118d3818661174d565b94505050505060808201516118ec608087018215159052565b5060a0820151915061190260a086018315159052565b6020968701969094509290920191506001016117d7565b50909695505050505050565b60006020828403121561193757600080fd5b6119408261141f565b9392505050565b60808152600061195a608083018761153c565b828103602084015261196c818761153c565b6001600160a01b0395909516604084015250506060015292915050565b60408152600061199c604083018561153c565b905060018060a01b03831660208301529392505050565b60208152600061194060208301846116d9565b6000806000606084860312156119db57600080fd5b6119e48461141f565b9250602084013567ffffffffffffffff80821115611a0157600080fd5b611a0d87838801611451565b93506040860135915080821115611a2357600080fd5b5061153286828701611451565b606081526000611a43606083018661153c565b931515602083015250901515604090910152919050565b6001600160a01b03831681526040602082018190526000906116d19083018461153c565b600181811c90821680611a9257607f821691505b60208210811415611ab357634e487b7160e01b600052602260045260246000fd5b50919050565b6000600019821415611adb57634e487b7160e01b600052601160045260246000fd5b506001019056fea26469706673582212204f0ffbfb713b9db116769f75a60465712df993dba6df127218b1fff952272da564736f6c63430008090033",
  "linkReferences": {},
  "deployedLinkReferences": {}
}